:100000000C942A000C9447000C9447000C94470071
:100010000C9447000C9447000C9447000C94470044
:100020000C9447000C9447000C9447000C94470034
:100030000C9447000C9447000C9447000C94470024
:100040000C9447000C9447000C9447000C94470014
:100050000C94470011241FBECFE5D8E0DEBFCDBF12
:1000600010E0A0E6B0E0E2E7F2E102C005900D92F8
:10007000AC37B107D9F710E0ACE7B0E001C01D9292
:10008000AF37B107E1F70E94EF070C9437090C94E2
:100090000000DF93CF93CDB7DEB728970FB6F89463
:1000A000DEBF0FBECDBF8A836B834C8381E0898323
:1000B0008A81843008F0F1C08B81883008F0EDC06F
:1000C0008C81813009F06FC08A81282F30E0388719
:1000D0002F838F8198858130910549F12F81388553
:1000E000223031052CF48F819885009761F0D6C0BD
:1000F0002F8138852230310571F18F8198858330C9
:100100009105E9F1CBC0AAE3B0E0EAE3F0E0808139
:10011000482F8B81282F30E081E090E0022E02C032
:10012000880F991F0A94E2F7842B8C93B7C0A7E33A
:10013000B0E0E7E3F0E08081482F8B81282F30E0AA
:1001400081E090E0022E02C0880F991F0A94E2F726
:10015000842B8C93A3C0A4E3B0E0E4E3F0E08081BF
:10016000482F8B81282F30E081E090E0022E02C0E2
:10017000880F991F0A94E2F7842B8C938FC0A1E318
:10018000B0E0E1E3F0E08081482F8B81282F30E060
:1001900081E090E0022E02C0880F991F0A94E2F7D6
:1001A000842B8C937BC08C81882309F074C08A8156
:1001B000282F30E03E832D838D819E8181309105F3
:1001C00059F12D813E81223031052CF48D819E81A3
:1001D000009769F063C02D813E812230310589F19D
:1001E0008D819E818330910509F440C057C0AAE3F8
:1001F000B0E0EAE3F0E08081482F8B81282F30E0E7
:1002000081E090E0022E02C0880F991F0A94E2F765
:10021000809584238C9342C0A7E3B0E0E7E3F0E04D
:100220008081482F8B81282F30E081E090E0022EE2
:1002300002C0880F991F0A94E2F7809584238C935B
:100240002DC0A4E3B0E0E4E3F0E08081482F8B818F
:10025000282F30E081E090E0022E02C0880F991F25
:100260000A94E2F7809584238C9318C0A1E3B0E050
:10027000E1E3F0E08081482F8B81282F30E081E09E
:1002800090E0022E02C0880F991F0A94E2F7809531
:1002900084238C9303C0198201C019828981289616
:1002A0000FB6F894DEBF0FBECDBFCF91DF9108959A
:1002B000DF93CF93CDB7DEB728970FB6F894DEBFA4
:1002C0000FBECDBF8A836B834C8381E089838A8193
:1002D000843008F0F1C08B81883008F0EDC08C814B
:1002E000813009F06FC08A81282F30E038872F8352
:1002F0008F8198858130910549F12F813885223091
:1003000031052CF48F819885009761F0D6C02F813C
:1003100038852230310571F18F81988583309105C0
:10032000E9F1CBC0ABE3B0E0EBE3F0E08081482F34
:100330008B81282F30E081E090E0022E02C0880FF0
:10034000991F0A94E2F7842B8C93B7C0A8E3B0E01E
:10035000E8E3F0E08081482F8B81282F30E081E0B6
:1003600090E0022E02C0880F991F0A94E2F7842BB6
:100370008C93A3C0A5E3B0E0E5E3F0E08081482FD3
:100380008B81282F30E081E090E0022E02C0880FA0
:10039000991F0A94E2F7842B8C938FC0A2E3B0E0FC
:1003A000E2E3F0E08081482F8B81282F30E081E06C
:1003B00090E0022E02C0880F991F0A94E2F7842B66
:1003C0008C937BC08C81882309F074C08A81282F8C
:1003D00030E03E832D838D819E818130910559F1DE
:1003E0002D813E81223031052CF48D819E81009734
:1003F00069F063C02D813E812230310589F18D8104
:100400009E818330910509F440C057C0ABE3B0E052
:10041000EBE3F0E08081482F8B81282F30E081E0F2
:1004200090E0022E02C0880F991F0A94E2F780958F
:1004300084238C9342C0A8E3B0E0E8E3F0E080813D
:10044000482F8B81282F30E081E090E0022E02C0FF
:10045000880F991F0A94E2F7809584238C932DC00E
:10046000A5E3B0E0E5E3F0E08081482F8B81282F01
:1004700030E081E090E0022E02C0880F991F0A94BC
:10048000E2F7809584238C9318C0A2E3B0E0E2E306
:10049000F0E08081482F8B81282F30E081E090E0D0
:1004A000022E02C0880F991F0A94E2F780958423D8
:1004B0008C9303C0198201C01982898128960FB6D6
:1004C000F894DEBF0FBECDBFCF91DF910895DF93CB
:1004D000CF93CDB7DEB727970FB6F894DEBF0FBE28
:1004E000CDBF8A836B835D834C8381E089838A815E
:1004F000843008F07AC08B81883008F076C08C8117
:100500009D81009709F471C08A81282F30E03F83D4
:100510002E834E815F814130510559F18E819F813B
:100520008230910534F42E813F812115310569F027
:100530005DC04E815F814230510579F18E819F818E
:100540008330910509F43DC051C0E9E3F0E08081BA
:10055000282F30E08B81882F90E0A90102C05595AB
:1005600047958A95E2F7CA018170EC81FD8180830D
:100570003DC0E6E3F0E08081282F30E08B81882FBA
:1005800090E0A90102C0559547958A95E2F7CA0106
:100590008170EC81FD81808329C0E3E3F0E08081FC
:1005A000282F30E08B81882F90E0A90102C055955B
:1005B00047958A95E2F7CA018170EC81FD818083BD
:1005C00015C0E0E3F0E08081282F30E08B81882F98
:1005D00090E0A90102C0559547958A95E2F7CA01B6
:1005E0008170EC81FD81808301C019828981279609
:1005F0000FB6F894DEBF0FBECDBFCF91DF91089547
:10060000DF93CF9300D000D00F92CDB7DEB78A83AF
:100610006B8381E089838A81843008F073C08B8189
:10062000883008F06FC08A81282F30E03D832C830A
:100630008C819D818130910549F12C813D81223051
:1006400031052CF48C819D81009761F05CC02C8178
:100650003D812230310571F18C819D81833091057E
:10066000E9F151C0ABE3B0E0EBE3F0E08081482F6B
:100670008B81282F30E081E090E0022E02C0880FAD
:10068000991F0A94E2F784278C933DC0A8E3B0E059
:10069000E8E3F0E08081482F8B81282F30E081E073
:1006A00090E0022E02C0880F991F0A94E2F7842777
:1006B0008C9329C0A5E3B0E0E5E3F0E08081482F0A
:1006C0008B81282F30E081E090E0022E02C0880F5D
:1006D000991F0A94E2F784278C9315C0A2E3B0E037
:1006E000E2E3F0E08081482F8B81282F30E081E029
:1006F00090E0022E02C0880F991F0A94E2F7842727
:100700008C9301C0198289810F900F900F900F90E8
:100710000F90CF91DF910895DF93CF9300D000D059
:100720000F92CDB7DEB78A836B8381E089838A819C
:10073000843098F58A81282F30E03D832C838C818A
:100740009D8181309105D1F02C813D812230310590
:100750002CF48C819D81009761F020C02C813D811B
:100760002230310581F08C819D818330910581F0AB
:1007700015C0EAE3F0E08B81808310C0E7E3F0E08E
:100780008B8180830BC0E4E3F0E08B81808306C023
:10079000E1E3F0E08B81808301C0198289810F90B1
:1007A0000F900F900F900F90CF91DF910895DF93EE
:1007B000CF9300D000D00F92CDB7DEB78A836B8382
:1007C00081E089838A81843098F58A81282F30E0FE
:1007D0003D832C838C819D8181309105D1F02C81CA
:1007E0003D81223031052CF48C819D81009761F090
:1007F00020C02C813D812230310581F08C819D818A
:100800008330910581F015C0EBE3F0E08B818083AC
:1008100010C0E8E3F0E08B8180830BC0E5E3F0E0FB
:100820008B81808306C0E2E3F0E08B81808301C08E
:10083000198289810F900F900F900F900F90CF9198
:10084000DF910895DF93CF9300D000D000D0CDB7D3
:10085000DEB78A837C836B8381E089838A818430DD
:1008600008F03FC08B819C810097D9F18A81282FA5
:1008700030E03E832D838D819E8181309105E1F0B2
:100880002D813E81223031052CF48D819E8100978F
:1008900061F028C02D813E8122303105A1F08D818B
:1008A0009E8183309105B1F01DC0E9E3F0E08081C5
:1008B000EB81FC81808316C0E6E3F0E08081EB8170
:1008C000FC8180830FC0E3E3F0E08081EB81FC8159
:1008D000808308C0E0E3F0E08081EB81FC818083CD
:1008E00001C01982898126960FB6F894DEBF0FBE2B
:1008F000CDBFCF91DF910895DF93CF9300D000D08B
:10090000CDB7DEB78A8381E089838A81843008F09D
:100910003FC08A81282F30E03C832B838B819C81D0
:1009200081309105E9F02B813C81223031052CF496
:100930008B819C81009761F02CC02B813C812230FF
:100940003105B1F08B819C8183309105C9F021C0C4
:10095000ABE3B0E0EBE3F0E0808180958C9319C0CD
:10096000A8E3B0E0E8E3F0E0808180958C9311C0CB
:10097000A5E3B0E0E5E3F0E0808180958C9309C0C9
:10098000A2E3B0E0E2E3F0E0808180958C9301C0C7
:10099000198289810F900F900F900F90CF91DF9166
:1009A0000895DF93CF9300D000D00F92CDB7DEB77C
:1009B0008A836B8381E089838A81843008F088C0D0
:1009C0008A81282F30E03D832C838C819D8181306A
:1009D000910581F12C813D81223031052CF48C81EF
:1009E0009D81009769F075C02C813D8122303105D1
:1009F000D9F18C819D818330910509F44FC069C084
:100A0000AAE3B0E0EAE3F0E08081806F8C93ABE38F
:100A1000B0E0EBE3F0E08081282F2F708B81882FEE
:100A200090E082959295907F9827807F9827822BDF
:100A30008C934FC0A7E3B0E0E7E3F0E08081806FE4
:100A40008C93A8E3B0E0E8E3F0E08081282F2F70DA
:100A50008B81882F90E082959295907F9827807F58
:100A60009827822B8C9335C0A4E3B0E0E4E3F0E058
:100A70008081806F8C93A5E3B0E0E5E3F0E08081B6
:100A8000282F2F708B81882F90E082959295907FF0
:100A90009827807F9827822B8C931BC0A1E3B0E01E
:100AA000E1E3F0E08081806F8C93A2E3B0E0E2E3C9
:100AB000F0E08081282F2F708B81882F90E0829525
:100AC0009295907F9827807F9827822B8C9301C0E6
:100AD000198289810F900F900F900F900F90CF91F6
:100AE000DF910895DF93CF9300D000D00F92CDB760
:100AF000DEB78A836B8381E089838A81843008F042
:100B000074C08A81282F30E03D832C838C819D81A5
:100B10008130910559F12C813D81223031052CF431
:100B20008C819D81009769F061C02C813D812230CC
:100B3000310589F18C819D818330910509F440C094
:100B400055C0AAE3B0E0EAE3F0E080818F608C93C7
:100B5000ABE3B0E0EBE3F0E08081982F907F8B81F6
:100B60008F708B838B81892B8C9340C0A7E3B0E07F
:100B7000E7E3F0E080818F608C93A8E3B0E0E8E3E6
:100B8000F0E08081982F907F8B818F708B838B8199
:100B9000892B8C932BC0A4E3B0E0E4E3F0E08081E8
:100BA0008F608C93A5E3B0E0E5E3F0E08081982FBF
:100BB000907F8B818F708B838B81892B8C9316C058
:100BC000A7E3B0E0E7E3F0E080818F608C93A2E3DD
:100BD000B0E0E2E3F0E08081982F907F8B818F700E
:100BE0008B838B81892B8C9301C0198289810F9013
:100BF0000F900F900F900F90CF91DF910895DF939A
:100C0000CF9300D00F92CDB7DEB769837A838B8301
:100C100089819A81692F40E00E9449000F900F90CE
:100C20000F90CF91DF910895DF93CF9300D000D044
:100C30000F92CDB7DEB76B837C838D831A821982C6
:100C40008B819C819E012E5F3F4F692FA9010E94DD
:100C500067028D81882359F48A81882319F481E001
:100C6000898312C08A81813079F419820DC08D8107
:100C7000813051F48A81882311F4198205C08A8158
:100C8000813011F481E0898389810F900F900F905A
:100C90000F900F90CF91DF910895DF93CF9300D005
:100CA00000D0CDB7DEB769837A838B839C838A813A
:100CB0006FEF0E948C030F900F900F900F90CF91C9
:100CC000DF910895DF93CF9300D000D0CDB7DEB78A
:100CD00069837A838B839C838981882369F48B81E0
:100CE0009C81692F41E00E9449008B819C81692F82
:100CF00041E00E9458010FC08981813061F48B81ED
:100D00009C81692F41E00E9449008B819C81692F61
:100D100040E00E9458010F900F900F900F90CF91DC
:100D2000DF910895DF93CF9300D000D0CDB7DEB729
:100D300069837A838B839C838981882369F48B817F
:100D40009C81692F41E00E9449008B819C81692F21
:100D500040E00E9458010FC08981813061F48B818D
:100D60009C81692F41E00E9449008B819C81692F01
:100D700041E00E9458010F900F900F900F90CF917B
:100D8000DF910895DF93CF9300D000D00F92CDB7BD
:100D9000DEB769837A838B839C834D838981882323
:100DA00079F42A818D81882F90E0FC01E05AFF4F71
:100DB0008081982F9095822F692F0E94D7030FC0B2
:100DC0008981813061F42A818D81882F90E0FC0136
:100DD000E05AFF4F9081822F692F0E94D7030F9016
:100DE0000F900F900F900F90CF91DF910895DF93A8
:100DF000CF9300D00F92CDB7DEB789836A834B8340
:100E00008B81882329F489816A810E94720507C039
:100E10008B81813021F489816A810E94D1040F90F5
:100E20000F900F90CF91DF910895DF93CF9300D073
:100E30000F92CDB7DEB769837A838B8389819A81DC
:100E4000692F41E00E9449000F900F900F90CF91C1
:100E5000DF910895DF93CF9300D00F92CDB7DEB727
:100E600069837A838B838B81813039F489819A817C
:100E7000692F41E00E94580109C08B81882331F419
:100E800089819A81692F40E00E9458010F900F904C
:100E90000F90CF91DF910895DF93CF9300D00F9201
:100EA000CDB7DEB769837A838B838B81813039F448
:100EB00089819A81692F40E00E94580109C08B8185
:100EC000882331F489819A81692F41E00E94580179
:100ED0000F900F900F90CF91DF910895DF93CF93F4
:100EE00000D00F92CDB7DEB769837A838B83898177
:100EF0009A81692F0E9400030F900F900F90CF915D
:100F0000DF910895DF93CF9300D00F92CDB7DEB776
:100F100069837A838B8389819A81692F41E00E945A
:100F200049000F900F900F90CF91DF910895DF93BC
:100F3000CF9300D00F92CDB7DEB769837A838B83CE
:100F40008B81813039F489819A81692F41E00E9437
:100F5000580109C08B81882331F489819A81692FD6
:100F600040E00E9458010F900F900F90CF91DF91B9
:100F70000895DF93CF9300D00F92CDB7DEB769838A
:100F80007A838B838B81813039F489819A81692FAF
:100F900040E00E94580109C08B81882331F4898187
:100FA0009A81692F41E00E9458010F900F900F9095
:100FB000CF91DF910895DF93CF9300D00F92CDB7FB
:100FC000DEB769837A838B8389819A81692F0E9436
:100FD00000030F900F900F90CF91DF910895DF9352
:100FE000CF93CDB7DEB70E944D082CE730E060917B
:100FF0006A0070916B0080916C00A9010E948408C6
:101000002CE730E060916D0070916E0080916F0070
:10101000A9010E94B6082DE730E060917000709140
:10102000710080917200A9010E9484082DE730E0D0
:10103000609173007091740080917500A9010E9405
:10104000B6080E94E8080E940A0990917C0080E09E
:10105000692F40E00E94F70690917D0080E0692FA3
:1010600041E00E94F70680917E009AE0692F0E947D
:101070002B09982F81E0692F40E00E94F7068091AC
:101080007E009AE0692F0E942B09892F982F81E01A
:10109000692F41E00E94F706A8CFDF93CF93CDB729
:1010A000DEB760916A0070916B0080916C000E94C5
:1010B000FF0560916D0070916E0080916F000E943D
:1010C000FF056091700070917100809172000E9424
:1010D000FF056091730070917400809175000E940B
:1010E000FF056091760070917700809178000E94F2
:1010F000FF056091790070917A0080917B000E94D9
:10110000FF05CF91DF910895DF93CF9300D000D0FA
:101110000F92CDB7DEB769837A838B835D834C836F
:1011200069817A818B810E9414068823B9F06981D4
:101130007A818B810E9414068823C9F7EC81FD8196
:1011400080818F5FEC81FD818083EC81FD818081D6
:101150008A3021F4EC81FD8189E080830F900F902B
:101160000F900F900F90CF91DF910895DF93CF9361
:1011700000D000D00F92CDB7DEB769837A838B831E
:101180005D834C8369817A818B810E941406882358
:10119000B9F069817A818B810E9414068823C9F78E
:1011A000EC81FD818081882321F4EC81FD81108216
:1011B00007C0EC81FD8180818150EC81FD818083BD
:1011C0000F900F900F900F900F90CF91DF91089597
:1011D000DF93CF93CDB7DEB7609176007091770043
:1011E000809178000E941406882389F0609176002F
:1011F00070917700809178000E9414068823B1F7DF
:1012000080917C0090917D00890F80937E00CF912A
:10121000DF910895DF93CF93CDB7DEB7609179006A
:1012200070917A0080917B000E941406882381F0DF
:101230006091790070917A0080917B000E94140681
:101240008823B1F710927C0010927D0010927E00EE
:10125000CF91DF910895991B79E004C0991F9617EB
:1012600008F0961B881F7A95C9F780950895F89421
:02127000FFCFAE
:101272003F065B4F666D7C077F6F02000102010132
:0C12820002020102030102040102050146
:00000001FF
